{
  "address": "0xeE201e976ebA6296DAB81bB45CB3D33cC2A6469C",
  "abi": [
    {
      "inputs": [
        {
          "internalType": "address",
          "name": "vrfCoordinatorV2",
          "type": "address"
        },
        {
          "internalType": "uint256",
          "name": "entranceFee",
          "type": "uint256"
        },
        {
          "internalType": "bytes32",
          "name": "gasLane",
          "type": "bytes32"
        },
        {
          "internalType": "uint64",
          "name": "subscriptionID",
          "type": "uint64"
        },
        {
          "internalType": "uint32",
          "name": "callBackGasLimit",
          "type": "uint32"
        },
        {
          "internalType": "uint256",
          "name": "interval",
          "type": "uint256"
        }
      ],
      "stateMutability": "nonpayable",
      "type": "constructor"
    },
    {
      "inputs": [
        {
          "internalType": "address",
          "name": "have",
          "type": "address"
        },
        {
          "internalType": "address",
          "name": "want",
          "type": "address"
        }
      ],
      "name": "OnlyCoordinatorCanFulfill",
      "type": "error"
    },
    {
      "inputs": [],
      "name": "Raffle__NotEnoughtETHsent",
      "type": "error"
    },
    {
      "inputs": [],
      "name": "Raffle__NotOpen",
      "type": "error"
    },
    {
      "inputs": [],
      "name": "Raffle__TransferFailed",
      "type": "error"
    },
    {
      "inputs": [
        {
          "internalType": "uint256",
          "name": "currentBalance",
          "type": "uint256"
        },
        {
          "internalType": "uint256",
          "name": "numPlayers",
          "type": "uint256"
        },
        {
          "internalType": "uint256",
          "name": "raffleState",
          "type": "uint256"
        }
      ],
      "name": "Raffle__UpkeepNotNeeded",
      "type": "error"
    },
    {
      "anonymous": false,
      "inputs": [
        {
          "indexed": true,
          "internalType": "address",
          "name": "player",
          "type": "address"
        }
      ],
      "name": "RaffleEnter",
      "type": "event"
    },
    {
      "anonymous": false,
      "inputs": [
        {
          "indexed": true,
          "internalType": "uint256",
          "name": "requestID",
          "type": "uint256"
        }
      ],
      "name": "RequestRaffleWinner",
      "type": "event"
    },
    {
      "anonymous": false,
      "inputs": [
        {
          "indexed": true,
          "internalType": "address",
          "name": "player",
          "type": "address"
        }
      ],
      "name": "WinnerPicked",
      "type": "event"
    },
    {
      "inputs": [
        {
          "internalType": "bytes",
          "name": "",
          "type": "bytes"
        }
      ],
      "name": "checkUpkeep",
      "outputs": [
        {
          "internalType": "bool",
          "name": "upkeepNeeded",
          "type": "bool"
        },
        {
          "internalType": "bytes",
          "name": "",
          "type": "bytes"
        }
      ],
      "stateMutability": "nonpayable",
      "type": "function"
    },
    {
      "inputs": [],
      "name": "enterRaffle",
      "outputs": [],
      "stateMutability": "payable",
      "type": "function"
    },
    {
      "inputs": [],
      "name": "getEntranceFee",
      "outputs": [
        {
          "internalType": "uint256",
          "name": "",
          "type": "uint256"
        }
      ],
      "stateMutability": "view",
      "type": "function"
    },
    {
      "inputs": [],
      "name": "getInterval",
      "outputs": [
        {
          "internalType": "uint256",
          "name": "",
          "type": "uint256"
        }
      ],
      "stateMutability": "view",
      "type": "function"
    },
    {
      "inputs": [],
      "name": "getLastTimeStamp",
      "outputs": [
        {
          "internalType": "uint256",
          "name": "",
          "type": "uint256"
        }
      ],
      "stateMutability": "view",
      "type": "function"
    },
    {
      "inputs": [],
      "name": "getNumberOfPlayers",
      "outputs": [
        {
          "internalType": "uint256",
          "name": "",
          "type": "uint256"
        }
      ],
      "stateMutability": "view",
      "type": "function"
    },
    {
      "inputs": [
        {
          "internalType": "uint256",
          "name": "index",
          "type": "uint256"
        }
      ],
      "name": "getPlayer",
      "outputs": [
        {
          "internalType": "address",
          "name": "",
          "type": "address"
        }
      ],
      "stateMutability": "view",
      "type": "function"
    },
    {
      "inputs": [],
      "name": "getRaffleState",
      "outputs": [
        {
          "internalType": "enum Raffle.RaffleState",
          "name": "",
          "type": "uint8"
        }
      ],
      "stateMutability": "view",
      "type": "function"
    },
    {
      "inputs": [],
      "name": "getRecentWinner",
      "outputs": [
        {
          "internalType": "address",
          "name": "",
          "type": "address"
        }
      ],
      "stateMutability": "view",
      "type": "function"
    },
    {
      "inputs": [
        {
          "internalType": "bytes",
          "name": "",
          "type": "bytes"
        }
      ],
      "name": "performUpkeep",
      "outputs": [],
      "stateMutability": "nonpayable",
      "type": "function"
    },
    {
      "inputs": [
        {
          "internalType": "uint256",
          "name": "requestId",
          "type": "uint256"
        },
        {
          "internalType": "uint256[]",
          "name": "randomWords",
          "type": "uint256[]"
        }
      ],
      "name": "rawFulfillRandomWords",
      "outputs": [],
      "stateMutability": "nonpayable",
      "type": "function"
    }
  ],
  "transactionHash": "0xd97245fb1cac9815852ee7897f90ec82572af100ab86eae59e55afca551f2f98",
  "args": [
    "0x2Ca8E0C643bDe4C2E08ab1fA0da3401AdAD7734D",
    "10000000000000000",
    "0x79d3d8832d904592c0bf9818b621522c988bb8b0c05cdc3b15aea1b6e8db0c15",
    "10021",
    "5000000",
    "30"
  ],
  "numDeployments": 1,
  "solcInputHash": "10589f835d65d5390dfc98f62881b599",
  "bytecode": "0x6101606040523480156200001257600080fd5b50604051620017dc380380620017dc8339818101604052810190620000389190620001ad565b858073ffffffffffffffffffffffffffffffffffffffff1660808173ffffffffffffffffffffffffffffffffffffffff1660601b81525050508460a081815250508573ffffffffffffffffffffffffffffffffffffffff1660c08173ffffffffffffffffffffffffffffffffffffffff1660601b815250508360e081815250508267ffffffffffffffff166101008167ffffffffffffffff1660c01b815250508163ffffffff166101208163ffffffff1660e01b815250506000600160146101000a81548160ff02191690836001811115620001195762000118620002b5565b5b0217905550426002819055508061014081815250505050505050506200036b565b6000815190506200014b81620002e9565b92915050565b600081519050620001628162000303565b92915050565b60008151905062000179816200031d565b92915050565b600081519050620001908162000337565b92915050565b600081519050620001a78162000351565b92915050565b60008060008060008060c08789031215620001cd57620001cc620002e4565b5b6000620001dd89828a016200013a565b9650506020620001f089828a0162000168565b95505060406200020389828a0162000151565b94505060606200021689828a0162000196565b93505060806200022989828a016200017f565b92505060a06200023c89828a0162000168565b9150509295509295509295565b6000620002568262000267565b9050919050565b6000819050919050565b600073ffffffffffffffffffffffffffffffffffffffff82169050919050565b6000819050919050565b600063ffffffff82169050919050565b600067ffffffffffffffff82169050919050565b7f4e487b7100000000000000000000000000000000000000000000000000000000600052602160045260246000fd5b600080fd5b620002f48162000249565b81146200030057600080fd5b50565b6200030e816200025d565b81146200031a57600080fd5b50565b620003288162000287565b81146200033457600080fd5b50565b620003428162000291565b81146200034e57600080fd5b50565b6200035c81620002a1565b81146200036857600080fd5b50565b60805160601c60a05160c05160601c60e0516101005160c01c6101205160e01c610140516113f5620003e76000396000818161075401526107fd0152600061061f015260006105fc015260006105db0152600061059f01526000818161027e015261037b0152600081816102bb015261030f01526113f56000f3fe60806040526004361061009c5760003560e01c8063473f1ddc11610064578063473f1ddc146101535780636e04ff0d1461017e57806391ad27b4146101bc578063c1c244e8146101e7578063e55ae4e814610212578063fd6673f51461024f5761009c565b806309bc33a7146100a1578063115cbaf5146100cc5780631fe543e3146100f75780632cfcc539146101205780634585e33b1461012a575b600080fd5b3480156100ad57600080fd5b506100b661027a565b6040516100c39190610ffb565b60405180910390f35b3480156100d857600080fd5b506100e16102a2565b6040516100ee9190610fe0565b60405180910390f35b34801561010357600080fd5b5061011e60048036038101906101199190610dd4565b6102b9565b005b610128610379565b005b34801561013657600080fd5b50610151600480360381019061014c9190610ce4565b6104e8565b005b34801561015f57600080fd5b506101686106e7565b6040516101759190610f19565b60405180910390f35b34801561018a57600080fd5b506101a560048036038101906101a09190610d31565b610711565b6040516101b3929190610f5d565b60405180910390f35b3480156101c857600080fd5b506101d16107f9565b6040516101de9190610ffb565b60405180910390f35b3480156101f357600080fd5b506101fc610821565b6040516102099190610ffb565b60405180910390f35b34801561021e57600080fd5b5061023960048036038101906102349190610d7a565b61082b565b6040516102469190610f19565b60405180910390f35b34801561025b57600080fd5b50610264610872565b6040516102719190610ffb565b60405180910390f35b60007f0000000000000000000000000000000000000000000000000000000000000000905090565b6000600160149054906101000a900460ff16905090565b7f000000000000000000000000000000000000000000000000000000000000000073ffffffffffffffffffffffffffffffffffffffff163373ffffffffffffffffffffffffffffffffffffffff161461036b57337f00000000000000000000000000000000000000000000000000000000000000006040517f1cf993f4000000000000000000000000000000000000000000000000000000008152600401610362929190610f34565b60405180910390fd5b610375828261087e565b5050565b7f00000000000000000000000000000000000000000000000000000000000000003410156103d3576040517f17625a1000000000000000000000000000000000000000000000000000000000815260040160405180910390fd5b600060018111156103e7576103e66112d5565b5b600160149054906101000a900460ff166001811115610409576104086112d5565b5b14610440576040517f1425571c00000000000000000000000000000000000000000000000000000000815260040160405180910390fd5b6000339080600181540180825580915050600190039060005260206000200160009091909190916101000a81548173ffffffffffffffffffffffffffffffffffffffff021916908373ffffffffffffffffffffffffffffffffffffffff1602179055503373ffffffffffffffffffffffffffffffffffffffff167f0805e1d667bddb8a95f0f09880cf94f403fb596ce79928d9f29b74203ba284d460405160405180910390a2565b600061050260405180602001604052806000815250610711565b509050806105715747600080549050600160149054906101000a900460ff166001811115610533576105326112d5565b5b6040517f584327aa00000000000000000000000000000000000000000000000000000000815260040161056893929190611016565b60405180910390fd5b60018060146101000a81548160ff02191690836001811115610596576105956112d5565b5b021790555060007f000000000000000000000000000000000000000000000000000000000000000073ffffffffffffffffffffffffffffffffffffffff16635d3b1d307f00000000000000000000000000000000000000000000000000000000000000007f000000000000000000000000000000000000000000000000000000000000000060037f000000000000000000000000000000000000000000000000000000000000000060016040518663ffffffff1660e01b8152600401610660959493929190610f8d565b602060405180830381600087803b15801561067a57600080fd5b505af115801561068e573d6000803e3d6000fd5b505050506040513d601f19601f820116820180604052508101906106b29190610da7565b9050807fde6349b018d6c03d837b67d9a198a6ba4842546f2295fe963fae141e5dbaef8160405160405180910390a250505050565b6000600160009054906101000a900473ffffffffffffffffffffffffffffffffffffffff16905090565b600060606000600160149054906101000a900460ff166001811115610739576107386112d5565b5b6000600181111561074d5761074c6112d5565b5b14905060007f00000000000000000000000000000000000000000000000000000000000000006002544261078191906110f6565b119050600080600080549050119050600080471190508380156107a15750825b80156107aa5750815b80156107b35750805b9550856040518060400160405280600381526020017f30783000000000000000000000000000000000000000000000000000000000008152509550955050505050915091565b60007f0000000000000000000000000000000000000000000000000000000000000000905090565b6000600254905090565b60008082815481106108405761083f611304565b5b9060005260206000200160009054906101000a900473ffffffffffffffffffffffffffffffffffffffff169050919050565b60008080549050905090565b600080805490508260008151811061089957610898611304565b5b60200260200101516108ab9190611246565b905060008082815481106108c2576108c1611304565b5b9060005260206000200160009054906101000a900473ffffffffffffffffffffffffffffffffffffffff16905080600160006101000a81548173ffffffffffffffffffffffffffffffffffffffff021916908373ffffffffffffffffffffffffffffffffffffffff1602179055506000600160146101000a81548160ff02191690836001811115610956576109556112d5565b5b0217905550600067ffffffffffffffff81111561097657610975611333565b5b6040519080825280602002602001820160405280156109a45781602001602082028036833780820191505090505b50600090805190602001906109ba929190610aaf565b504260028190555060008173ffffffffffffffffffffffffffffffffffffffff16476040516109e890610f04565b60006040518083038185875af1925050503d8060008114610a25576040519150601f19603f3d011682016040523d82523d6000602084013e610a2a565b606091505b5050905080610a65576040517fa1d04b3900000000000000000000000000000000000000000000000000000000815260040160405180910390fd5b8173ffffffffffffffffffffffffffffffffffffffff167f5b690ec4a06fe979403046eaeea5b3ce38524683c3001f662c8b5a829632f7df60405160405180910390a25050505050565b828054828255906000526020600020908101928215610b28579160200282015b82811115610b275782518260006101000a81548173ffffffffffffffffffffffffffffffffffffffff021916908373ffffffffffffffffffffffffffffffffffffffff16021790555091602001919060010190610acf565b5b509050610b359190610b39565b5090565b5b80821115610b52576000816000905550600101610b3a565b5090565b6000610b69610b6484611072565b61104d565b90508083825260208201905082856020860282011115610b8c57610b8b61136c565b5b60005b85811015610bbc5781610ba28882610cba565b845260208401935060208301925050600181019050610b8f565b5050509392505050565b6000610bd9610bd48461109e565b61104d565b905082815260208101848484011115610bf557610bf4611371565b5b610c008482856111d3565b509392505050565b600082601f830112610c1d57610c1c611367565b5b8135610c2d848260208601610b56565b91505092915050565b60008083601f840112610c4c57610c4b611367565b5b8235905067ffffffffffffffff811115610c6957610c68611362565b5b602083019150836001820283011115610c8557610c8461136c565b5b9250929050565b600082601f830112610ca157610ca0611367565b5b8135610cb1848260208601610bc6565b91505092915050565b600081359050610cc9816113a8565b92915050565b600081519050610cde816113a8565b92915050565b60008060208385031215610cfb57610cfa61137b565b5b600083013567ffffffffffffffff811115610d1957610d18611376565b5b610d2585828601610c36565b92509250509250929050565b600060208284031215610d4757610d4661137b565b5b600082013567ffffffffffffffff811115610d6557610d64611376565b5b610d7184828501610c8c565b91505092915050565b600060208284031215610d9057610d8f61137b565b5b6000610d9e84828501610cba565b91505092915050565b600060208284031215610dbd57610dbc61137b565b5b6000610dcb84828501610ccf565b91505092915050565b60008060408385031215610deb57610dea61137b565b5b6000610df985828601610cba565b925050602083013567ffffffffffffffff811115610e1a57610e19611376565b5b610e2685828601610c08565b9150509250929050565b610e398161112a565b82525050565b610e488161113c565b82525050565b610e5781611148565b82525050565b6000610e68826110cf565b610e7281856110da565b9350610e828185602086016111e2565b610e8b81611380565b840191505092915050565b610e9f816111c1565b82525050565b6000610eb26000836110eb565b9150610ebd82611391565b600082019050919050565b610ed181611165565b82525050565b610ee081611193565b82525050565b610eef8161119d565b82525050565b610efe816111ad565b82525050565b6000610f0f82610ea5565b9150819050919050565b6000602082019050610f2e6000830184610e30565b92915050565b6000604082019050610f496000830185610e30565b610f566020830184610e30565b9392505050565b6000604082019050610f726000830185610e3f565b8181036020830152610f848184610e5d565b90509392505050565b600060a082019050610fa26000830188610e4e565b610faf6020830187610ef5565b610fbc6040830186610ec8565b610fc96060830185610ee6565b610fd66080830184610ee6565b9695505050505050565b6000602082019050610ff56000830184610e96565b92915050565b60006020820190506110106000830184610ed7565b92915050565b600060608201905061102b6000830186610ed7565b6110386020830185610ed7565b6110456040830184610ed7565b949350505050565b6000611057611068565b90506110638282611215565b919050565b6000604051905090565b600067ffffffffffffffff82111561108d5761108c611333565b5b602082029050602081019050919050565b600067ffffffffffffffff8211156110b9576110b8611333565b5b6110c282611380565b9050602081019050919050565b600081519050919050565b600082825260208201905092915050565b600081905092915050565b600061110182611193565b915061110c83611193565b92508282101561111f5761111e611277565b5b828203905092915050565b600061113582611173565b9050919050565b60008115159050919050565b6000819050919050565b600081905061116082611394565b919050565b600061ffff82169050919050565b600073ffffffffffffffffffffffffffffffffffffffff82169050919050565b6000819050919050565b600063ffffffff82169050919050565b600067ffffffffffffffff82169050919050565b60006111cc82611152565b9050919050565b82818337600083830152505050565b60005b838110156112005780820151818401526020810190506111e5565b8381111561120f576000848401525b50505050565b61121e82611380565b810181811067ffffffffffffffff8211171561123d5761123c611333565b5b80604052505050565b600061125182611193565b915061125c83611193565b92508261126c5761126b6112a6565b5b828206905092915050565b7f4e487b7100000000000000000000000000000000000000000000000000000000600052601160045260246000fd5b7f4e487b7100000000000000000000000000000000000000000000000000000000600052601260045260246000fd5b7f4e487b7100000000000000000000000000000000000000000000000000000000600052602160045260246000fd5b7f4e487b7100000000000000000000000000000000000000000000000000000000600052603260045260246000fd5b7f4e487b7100000000000000000000000000000000000000000000000000000000600052604160045260246000fd5b600080fd5b600080fd5b600080fd5b600080fd5b600080fd5b600080fd5b6000601f19601f8301169050919050565b50565b600281106113a5576113a46112d5565b5b50565b6113b181611193565b81146113bc57600080fd5b5056fea2646970667358221220e13596eb63cb2f704d56e2186f5e519795f8805afddc6ced5631feb9fbe9d34964736f6c63430008070033",
  "devdoc": {
    "kind": "dev",
    "methods": {},
    "version": 1
  },
  "userdoc": {
    "kind": "user",
    "methods": {},
    "version": 1
  },
  "storageLayout": {
    "storage": [
      {
        "astId": 203,
        "contract": "contracts/Raffle.sol:Raffle",
        "label": "s_players",
        "offset": 0,
        "slot": "0",
        "type": "t_array(t_address_payable)dyn_storage"
      },
      {
        "astId": 220,
        "contract": "contracts/Raffle.sol:Raffle",
        "label": "s_recentWinner",
        "offset": 0,
        "slot": "1",
        "type": "t_address"
      },
      {
        "astId": 223,
        "contract": "contracts/Raffle.sol:Raffle",
        "label": "s_RaffleState",
        "offset": 20,
        "slot": "1",
        "type": "t_enum(RaffleState)198"
      },
      {
        "astId": 225,
        "contract": "contracts/Raffle.sol:Raffle",
        "label": "s_lastTimeStamp",
        "offset": 0,
        "slot": "2",
        "type": "t_uint256"
      }
    ],
    "types": {
      "t_address": {
        "encoding": "inplace",
        "label": "address",
        "numberOfBytes": "20"
      },
      "t_address_payable": {
        "encoding": "inplace",
        "label": "address payable",
        "numberOfBytes": "20"
      },
      "t_array(t_address_payable)dyn_storage": {
        "base": "t_address_payable",
        "encoding": "dynamic_array",
        "label": "address payable[]",
        "numberOfBytes": "32"
      },
      "t_enum(RaffleState)198": {
        "encoding": "inplace",
        "label": "enum Raffle.RaffleState",
        "numberOfBytes": "1"
      },
      "t_uint256": {
        "encoding": "inplace",
        "label": "uint256",
        "numberOfBytes": "32"
      }
    }
  }
}